{
	"data": {
		"bytecode": {
			"linkReferences": {},
			"object": "608060405234801562000010575f80fd5b50604051620010ba380380620010ba8339818101604052810190620000369190620001b2565b835f806101000a81548173ffffffffffffffffffffffffffffffffffffffff021916908373ffffffffffffffffffffffffffffffffffffffff160217905550600160028190555082600381905550816004819055503360015f6101000a81548173ffffffffffffffffffffffffffffffffffffffff021916908373ffffffffffffffffffffffffffffffffffffffff1602179055508060075f6101000a81548173ffffffffffffffffffffffffffffffffffffffff021916908373ffffffffffffffffffffffffffffffffffffffff1602179055505050505062000221565b5f80fd5b5f73ffffffffffffffffffffffffffffffffffffffff82169050919050565b5f620001448262000119565b9050919050565b620001568162000138565b811462000161575f80fd5b50565b5f8151905062000174816200014b565b92915050565b5f819050919050565b6200018e816200017a565b811462000199575f80fd5b50565b5f81519050620001ac8162000183565b92915050565b5f805f8060808587031215620001cd57620001cc62000115565b5b5f620001dc8782880162000164565b9450506020620001ef878288016200019c565b935050604062000202878288016200019c565b9250506060620002158782880162000164565b91505092959194509250565b610e8b806200022f5f395ff3fe608060405234801561000f575f80fd5b506004361061009c575f3560e01c80638da5cb5b116100645780638da5cb5b14610120578063a035b1fe1461013e578063aa8c217c1461015c578063c6a898c51461017a578063f7d97577146101985761009c565b80632986c0e5146100a05780633ccfd60b146100be57806347ccca02146100c857806370ba1113146100e65780638d8acae814610104575b5f80fd5b6100a86101b4565b6040516100b591906107e6565b60405180910390f35b6100c66101ba565b005b6100d06103a3565b6040516100dd9190610879565b60405180910390f35b6100ee6103c8565b6040516100fb91906108ad565b60405180910390f35b61011e6004803603810190610119919061091e565b6103da565b005b6101286106d9565b60405161013591906109b5565b60405180910390f35b6101466106fe565b60405161015391906107e6565b60405180910390f35b610164610704565b60405161017191906107e6565b60405180910390f35b61018261070a565b60405161018f91906109b5565b60405180910390f35b6101b260048036038101906101ad91906109ce565b61072d565b005b60025481565b60015f9054906101000a900473ffffffffffffffffffffffffffffffffffffffff1673ffffffffffffffffffffffffffffffffffffffff163373ffffffffffffffffffffffffffffffffffffffff1614610249576040517f08c379a000000000000000000000000000000000000000000000000000000000815260040161024090610a66565b60405180910390fd5b5f805f9054906101000a900473ffffffffffffffffffffffffffffffffffffffff1673ffffffffffffffffffffffffffffffffffffffff166370a08231306040518263ffffffff1660e01b81526004016102a391906109b5565b602060405180830381865afa1580156102be573d5f803e3d5ffd5b505050506040513d601f19601f820116820180604052508101906102e29190610a98565b90505f8054906101000a900473ffffffffffffffffffffffffffffffffffffffff1673ffffffffffffffffffffffffffffffffffffffff1663a9059cbb60015f9054906101000a900473ffffffffffffffffffffffffffffffffffffffff16836040518363ffffffff1660e01b815260040161035f929190610ac3565b6020604051808303815f875af115801561037b573d5f803e3d5ffd5b505050506040513d601f19601f8201168201806040525081019061039f9190610b1f565b5050565b60075f9054906101000a900473ffffffffffffffffffffffffffffffffffffffff1681565b60055f9054906101000a900460ff1681565b846003546103e89190610b77565b8414610429576040517f08c379a000000000000000000000000000000000000000000000000000000000815260040161042090610c02565b60405180910390fd5b84600454101561046e576040517f08c379a000000000000000000000000000000000000000000000000000000000815260040161046590610c6a565b60405180910390fd5b5f8054906101000a900473ffffffffffffffffffffffffffffffffffffffff1673ffffffffffffffffffffffffffffffffffffffff166323b872dd3330876040518463ffffffff1660e01b81526004016104ca93929190610c88565b6020604051808303815f875af11580156104e6573d5f803e3d5ffd5b505050506040513d601f19601f8201168201806040525081019061050a9190610b1f565b505f6002548661051a9190610cbd565b90505b8060025410156105ca5760075f9054906101000a900473ffffffffffffffffffffffffffffffffffffffff1673ffffffffffffffffffffffffffffffffffffffff166340c10f193360025f81548092919061057790610cf0565b919050556040518363ffffffff1660e01b8152600401610598929190610ac3565b5f604051808303815f87803b1580156105af575f80fd5b505af11580156105c1573d5f803e3d5ffd5b5050505061051d565b856004546105d89190610d37565b6004819055505f60026101f4866105ef9190610d37565b6105f99190610d97565b90505f61012c828661060b9190610d97565b6106159190610d37565b90505f61012c83866106279190610dc7565b6106319190610e0e565b90505f8054906101000a900473ffffffffffffffffffffffffffffffffffffffff1673ffffffffffffffffffffffffffffffffffffffff1663a9059cbb82846040518363ffffffff1660e01b815260040161068d929190610ac3565b6020604051808303815f875af11580156106a9573d5f803e3d5ffd5b505050506040513d601f19601f820116820180604052508101906106cd9190610b1f565b50505050505050505050565b60015f9054906101000a900473ffffffffffffffffffffffffffffffffffffffff1681565b60035481565b60045481565b5f8054906101000a900473ffffffffffffffffffffffffffffffffffffffff1681565b60015f9054906101000a900473ffffffffffffffffffffffffffffffffffffffff1673ffffffffffffffffffffffffffffffffffffffff163373ffffffffffffffffffffffffffffffffffffffff16146107bc576040517f08c379a00000000000000000000000000000000000000000000000000000000081526004016107b390610a66565b60405180910390fd5b81600381905550806004819055505050565b5f819050919050565b6107e0816107ce565b82525050565b5f6020820190506107f95f8301846107d7565b92915050565b5f73ffffffffffffffffffffffffffffffffffffffff82169050919050565b5f819050919050565b5f61084161083c610837846107ff565b61081e565b6107ff565b9050919050565b5f61085282610827565b9050919050565b5f61086382610848565b9050919050565b61087381610859565b82525050565b5f60208201905061088c5f83018461086a565b92915050565b5f60ff82169050919050565b6108a781610892565b82525050565b5f6020820190506108c05f83018461089e565b92915050565b5f80fd5b6108d3816107ce565b81146108dd575f80fd5b50565b5f813590506108ee816108ca565b92915050565b6108fd816107ff565b8114610907575f80fd5b50565b5f81359050610918816108f4565b92915050565b5f805f805f60a08688031215610937576109366108c6565b5b5f610944888289016108e0565b9550506020610955888289016108e0565b9450506040610966888289016108e0565b9350506060610977888289016108e0565b92505060806109888882890161090a565b9150509295509295909350565b5f61099f826107ff565b9050919050565b6109af81610995565b82525050565b5f6020820190506109c85f8301846109a6565b92915050565b5f80604083850312156109e4576109e36108c6565b5b5f6109f1858286016108e0565b9250506020610a02858286016108e0565b9150509250929050565b5f82825260208201905092915050565b7f6e6f207065726d697373696f6e730000000000000000000000000000000000005f82015250565b5f610a50600e83610a0c565b9150610a5b82610a1c565b602082019050919050565b5f6020820190508181035f830152610a7d81610a44565b9050919050565b5f81519050610a92816108ca565b92915050565b5f60208284031215610aad57610aac6108c6565b5b5f610aba84828501610a84565b91505092915050565b5f604082019050610ad65f8301856109a6565b610ae360208301846107d7565b9392505050565b5f8115159050919050565b610afe81610aea565b8114610b08575f80fd5b50565b5f81519050610b1981610af5565b92915050565b5f60208284031215610b3457610b336108c6565b5b5f610b4184828501610b0b565b91505092915050565b7f4e487b71000000000000000000000000000000000000000000000000000000005f52601160045260245ffd5b5f610b81826107ce565b9150610b8c836107ce565b9250828202610b9a816107ce565b91508282048414831517610bb157610bb0610b4a565b5b5092915050565b7f76616c756520213d207072696365202a206e756d6265720000000000000000005f82015250565b5f610bec601783610a0c565b9150610bf782610bb8565b602082019050919050565b5f6020820190508181035f830152610c1981610be0565b9050919050565b7f696e73756666696369656e74206e756d626572000000000000000000000000005f82015250565b5f610c54601383610a0c565b9150610c5f82610c20565b602082019050919050565b5f6020820190508181035f830152610c8181610c48565b9050919050565b5f606082019050610c9b5f8301866109a6565b610ca860208301856109a6565b610cb560408301846107d7565b949350505050565b5f610cc7826107ce565b9150610cd2836107ce565b9250828201905080821115610cea57610ce9610b4a565b5b92915050565b5f610cfa826107ce565b91507fffffffffffffffffffffffffffffffffffffffffffffffffffffffffffffffff8203610d2c57610d2b610b4a565b5b600182019050919050565b5f610d41826107ce565b9150610d4c836107ce565b9250828203905081811115610d6457610d63610b4a565b5b92915050565b7f4e487b71000000000000000000000000000000000000000000000000000000005f52601260045260245ffd5b5f610da1826107ce565b9150610dac836107ce565b925082610dbc57610dbb610d6a565b5b828204905092915050565b5f610dd1826107ff565b9150610ddc836107ff565b9250828201905073ffffffffffffffffffffffffffffffffffffffff811115610e0857610e07610b4a565b5b92915050565b5f610e18826107ff565b9150610e23836107ff565b9250828203905073ffffffffffffffffffffffffffffffffffffffff811115610e4f57610e4e610b4a565b5b9291505056fea264697066735822122061afcec515c859fd5b62e26e595ca1f710cda8958472e55d2098d5a2afc0e37864736f6c63430008180033",
			"opcodes": "PUSH1 0x80 PUSH1 0x40 MSTORE CALLVALUE DUP1 ISZERO PUSH3 0x10 JUMPI PUSH0 DUP1 REVERT JUMPDEST POP PUSH1 0x40 MLOAD PUSH3 0x10BA CODESIZE SUB DUP1 PUSH3 0x10BA DUP4 CODECOPY DUP2 DUP2 ADD PUSH1 0x40 MSTORE DUP2 ADD SWAP1 PUSH3 0x36 SWAP2 SWAP1 PUSH3 0x1B2 JUMP JUMPDEST DUP4 PUSH0 DUP1 PUSH2 0x100 EXP DUP2 SLOAD DUP2 PUSH20 0xFFFFFFFFFFFFFFFFFFFFFFFFFFFFFFFFFFFFFFFF MUL NOT AND SWAP1 DUP4 PUSH20 0xFFFFFFFFFFFFFFFFFFFFFFFFFFFFFFFFFFFFFFFF AND MUL OR SWAP1 SSTORE POP PUSH1 0x1 PUSH1 0x2 DUP2 SWAP1 SSTORE POP DUP3 PUSH1 0x3 DUP2 SWAP1 SSTORE POP DUP2 PUSH1 0x4 DUP2 SWAP1 SSTORE POP CALLER PUSH1 0x1 PUSH0 PUSH2 0x100 EXP DUP2 SLOAD DUP2 PUSH20 0xFFFFFFFFFFFFFFFFFFFFFFFFFFFFFFFFFFFFFFFF MUL NOT AND SWAP1 DUP4 PUSH20 0xFFFFFFFFFFFFFFFFFFFFFFFFFFFFFFFFFFFFFFFF AND MUL OR SWAP1 SSTORE POP DUP1 PUSH1 0x7 PUSH0 PUSH2 0x100 EXP DUP2 SLOAD DUP2 PUSH20 0xFFFFFFFFFFFFFFFFFFFFFFFFFFFFFFFFFFFFFFFF MUL NOT AND SWAP1 DUP4 PUSH20 0xFFFFFFFFFFFFFFFFFFFFFFFFFFFFFFFFFFFFFFFF AND MUL OR SWAP1 SSTORE POP POP POP POP POP PUSH3 0x221 JUMP JUMPDEST PUSH0 DUP1 REVERT JUMPDEST PUSH0 PUSH20 0xFFFFFFFFFFFFFFFFFFFFFFFFFFFFFFFFFFFFFFFF DUP3 AND SWAP1 POP SWAP2 SWAP1 POP JUMP JUMPDEST PUSH0 PUSH3 0x144 DUP3 PUSH3 0x119 JUMP JUMPDEST SWAP1 POP SWAP2 SWAP1 POP JUMP JUMPDEST PUSH3 0x156 DUP2 PUSH3 0x138 JUMP JUMPDEST DUP2 EQ PUSH3 0x161 JUMPI PUSH0 DUP1 REVERT JUMPDEST POP JUMP JUMPDEST PUSH0 DUP2 MLOAD SWAP1 POP PUSH3 0x174 DUP2 PUSH3 0x14B JUMP JUMPDEST SWAP3 SWAP2 POP POP JUMP JUMPDEST PUSH0 DUP2 SWAP1 POP SWAP2 SWAP1 POP JUMP JUMPDEST PUSH3 0x18E DUP2 PUSH3 0x17A JUMP JUMPDEST DUP2 EQ PUSH3 0x199 JUMPI PUSH0 DUP1 REVERT JUMPDEST POP JUMP JUMPDEST PUSH0 DUP2 MLOAD SWAP1 POP PUSH3 0x1AC DUP2 PUSH3 0x183 JUMP JUMPDEST SWAP3 SWAP2 POP POP JUMP JUMPDEST PUSH0 DUP1 PUSH0 DUP1 PUSH1 0x80 DUP6 DUP8 SUB SLT ISZERO PUSH3 0x1CD JUMPI PUSH3 0x1CC PUSH3 0x115 JUMP JUMPDEST JUMPDEST PUSH0 PUSH3 0x1DC DUP8 DUP3 DUP9 ADD PUSH3 0x164 JUMP JUMPDEST SWAP5 POP POP PUSH1 0x20 PUSH3 0x1EF DUP8 DUP3 DUP9 ADD PUSH3 0x19C JUMP JUMPDEST SWAP4 POP POP PUSH1 0x40 PUSH3 0x202 DUP8 DUP3 DUP9 ADD PUSH3 0x19C JUMP JUMPDEST SWAP3 POP POP PUSH1 0x60 PUSH3 0x215 DUP8 DUP3 DUP9 ADD PUSH3 0x164 JUMP JUMPDEST SWAP2 POP POP SWAP3 SWAP6 SWAP2 SWAP5 POP SWAP3 POP JUMP JUMPDEST PUSH2 0xE8B DUP1 PUSH3 0x22F PUSH0 CODECOPY PUSH0 RETURN INVALID PUSH1 0x80 PUSH1 0x40 MSTORE CALLVALUE DUP1 ISZERO PUSH2 0xF JUMPI PUSH0 DUP1 REVERT JUMPDEST POP PUSH1 0x4 CALLDATASIZE LT PUSH2 0x9C JUMPI PUSH0 CALLDATALOAD PUSH1 0xE0 SHR DUP1 PUSH4 0x8DA5CB5B GT PUSH2 0x64 JUMPI DUP1 PUSH4 0x8DA5CB5B EQ PUSH2 0x120 JUMPI DUP1 PUSH4 0xA035B1FE EQ PUSH2 0x13E JUMPI DUP1 PUSH4 0xAA8C217C EQ PUSH2 0x15C JUMPI DUP1 PUSH4 0xC6A898C5 EQ PUSH2 0x17A JUMPI DUP1 PUSH4 0xF7D97577 EQ PUSH2 0x198 JUMPI PUSH2 0x9C JUMP JUMPDEST DUP1 PUSH4 0x2986C0E5 EQ PUSH2 0xA0 JUMPI DUP1 PUSH4 0x3CCFD60B EQ PUSH2 0xBE JUMPI DUP1 PUSH4 0x47CCCA02 EQ PUSH2 0xC8 JUMPI DUP1 PUSH4 0x70BA1113 EQ PUSH2 0xE6 JUMPI DUP1 PUSH4 0x8D8ACAE8 EQ PUSH2 0x104 JUMPI JUMPDEST PUSH0 DUP1 REVERT JUMPDEST PUSH2 0xA8 PUSH2 0x1B4 JUMP JUMPDEST PUSH1 0x40 MLOAD PUSH2 0xB5 SWAP2 SWAP1 PUSH2 0x7E6 JUMP JUMPDEST PUSH1 0x40 MLOAD DUP1 SWAP2 SUB SWAP1 RETURN JUMPDEST PUSH2 0xC6 PUSH2 0x1BA JUMP JUMPDEST STOP JUMPDEST PUSH2 0xD0 PUSH2 0x3A3 JUMP JUMPDEST PUSH1 0x40 MLOAD PUSH2 0xDD SWAP2 SWAP1 PUSH2 0x879 JUMP JUMPDEST PUSH1 0x40 MLOAD DUP1 SWAP2 SUB SWAP1 RETURN JUMPDEST PUSH2 0xEE PUSH2 0x3C8 JUMP JUMPDEST PUSH1 0x40 MLOAD PUSH2 0xFB SWAP2 SWAP1 PUSH2 0x8AD JUMP JUMPDEST PUSH1 0x40 MLOAD DUP1 SWAP2 SUB SWAP1 RETURN JUMPDEST PUSH2 0x11E PUSH1 0x4 DUP1 CALLDATASIZE SUB DUP2 ADD SWAP1 PUSH2 0x119 SWAP2 SWAP1 PUSH2 0x91E JUMP JUMPDEST PUSH2 0x3DA JUMP JUMPDEST STOP JUMPDEST PUSH2 0x128 PUSH2 0x6D9 JUMP JUMPDEST PUSH1 0x40 MLOAD PUSH2 0x135 SWAP2 SWAP1 PUSH2 0x9B5 JUMP JUMPDEST PUSH1 0x40 MLOAD DUP1 SWAP2 SUB SWAP1 RETURN JUMPDEST PUSH2 0x146 PUSH2 0x6FE JUMP JUMPDEST PUSH1 0x40 MLOAD PUSH2 0x153 SWAP2 SWAP1 PUSH2 0x7E6 JUMP JUMPDEST PUSH1 0x40 MLOAD DUP1 SWAP2 SUB SWAP1 RETURN JUMPDEST PUSH2 0x164 PUSH2 0x704 JUMP JUMPDEST PUSH1 0x40 MLOAD PUSH2 0x171 SWAP2 SWAP1 PUSH2 0x7E6 JUMP JUMPDEST PUSH1 0x40 MLOAD DUP1 SWAP2 SUB SWAP1 RETURN JUMPDEST PUSH2 0x182 PUSH2 0x70A JUMP JUMPDEST PUSH1 0x40 MLOAD PUSH2 0x18F SWAP2 SWAP1 PUSH2 0x9B5 JUMP JUMPDEST PUSH1 0x40 MLOAD DUP1 SWAP2 SUB SWAP1 RETURN JUMPDEST PUSH2 0x1B2 PUSH1 0x4 DUP1 CALLDATASIZE SUB DUP2 ADD SWAP1 PUSH2 0x1AD SWAP2 SWAP1 PUSH2 0x9CE JUMP JUMPDEST PUSH2 0x72D JUMP JUMPDEST STOP JUMPDEST PUSH1 0x2 SLOAD DUP2 JUMP JUMPDEST PUSH1 0x1 PUSH0 SWAP1 SLOAD SWAP1 PUSH2 0x100 EXP SWAP1 DIV PUSH20 0xFFFFFFFFFFFFFFFFFFFFFFFFFFFFFFFFFFFFFFFF AND PUSH20 0xFFFFFFFFFFFFFFFFFFFFFFFFFFFFFFFFFFFFFFFF AND CALLER PUSH20 0xFFFFFFFFFFFFFFFFFFFFFFFFFFFFFFFFFFFFFFFF AND EQ PUSH2 0x249 JUMPI PUSH1 0x40 MLOAD PUSH32 0x8C379A000000000000000000000000000000000000000000000000000000000 DUP2 MSTORE PUSH1 0x4 ADD PUSH2 0x240 SWAP1 PUSH2 0xA66 JUMP JUMPDEST PUSH1 0x40 MLOAD DUP1 SWAP2 SUB SWAP1 REVERT JUMPDEST PUSH0 DUP1 PUSH0 SWAP1 SLOAD SWAP1 PUSH2 0x100 EXP SWAP1 DIV PUSH20 0xFFFFFFFFFFFFFFFFFFFFFFFFFFFFFFFFFFFFFFFF AND PUSH20 0xFFFFFFFFFFFFFFFFFFFFFFFFFFFFFFFFFFFFFFFF AND PUSH4 0x70A08231 ADDRESS PUSH1 0x40 MLOAD DUP3 PUSH4 0xFFFFFFFF AND PUSH1 0xE0 SHL DUP2 MSTORE PUSH1 0x4 ADD PUSH2 0x2A3 SWAP2 SWAP1 PUSH2 0x9B5 JUMP JUMPDEST PUSH1 0x20 PUSH1 0x40 MLOAD DUP1 DUP4 SUB DUP2 DUP7 GAS STATICCALL ISZERO DUP1 ISZERO PUSH2 0x2BE JUMPI RETURNDATASIZE PUSH0 DUP1 RETURNDATACOPY RETURNDATASIZE PUSH0 REVERT JUMPDEST POP POP POP POP PUSH1 0x40 MLOAD RETURNDATASIZE PUSH1 0x1F NOT PUSH1 0x1F DUP3 ADD AND DUP3 ADD DUP1 PUSH1 0x40 MSTORE POP DUP2 ADD SWAP1 PUSH2 0x2E2 SWAP2 SWAP1 PUSH2 0xA98 JUMP JUMPDEST SWAP1 POP PUSH0 DUP1 SLOAD SWAP1 PUSH2 0x100 EXP SWAP1 DIV PUSH20 0xFFFFFFFFFFFFFFFFFFFFFFFFFFFFFFFFFFFFFFFF AND PUSH20 0xFFFFFFFFFFFFFFFFFFFFFFFFFFFFFFFFFFFFFFFF AND PUSH4 0xA9059CBB PUSH1 0x1 PUSH0 SWAP1 SLOAD SWAP1 PUSH2 0x100 EXP SWAP1 DIV PUSH20 0xFFFFFFFFFFFFFFFFFFFFFFFFFFFFFFFFFFFFFFFF AND DUP4 PUSH1 0x40 MLOAD DUP4 PUSH4 0xFFFFFFFF AND PUSH1 0xE0 SHL DUP2 MSTORE PUSH1 0x4 ADD PUSH2 0x35F SWAP3 SWAP2 SWAP1 PUSH2 0xAC3 JUMP JUMPDEST PUSH1 0x20 PUSH1 0x40 MLOAD DUP1 DUP4 SUB DUP2 PUSH0 DUP8 GAS CALL ISZERO DUP1 ISZERO PUSH2 0x37B JUMPI RETURNDATASIZE PUSH0 DUP1 RETURNDATACOPY RETURNDATASIZE PUSH0 REVERT JUMPDEST POP POP POP POP PUSH1 0x40 MLOAD RETURNDATASIZE PUSH1 0x1F NOT PUSH1 0x1F DUP3 ADD AND DUP3 ADD DUP1 PUSH1 0x40 MSTORE POP DUP2 ADD SWAP1 PUSH2 0x39F SWAP2 SWAP1 PUSH2 0xB1F JUMP JUMPDEST POP POP JUMP JUMPDEST PUSH1 0x7 PUSH0 SWAP1 SLOAD SWAP1 PUSH2 0x100 EXP SWAP1 DIV PUSH20 0xFFFFFFFFFFFFFFFFFFFFFFFFFFFFFFFFFFFFFFFF AND DUP2 JUMP JUMPDEST PUSH1 0x5 PUSH0 SWAP1 SLOAD SWAP1 PUSH2 0x100 EXP SWAP1 DIV PUSH1 0xFF AND DUP2 JUMP JUMPDEST DUP5 PUSH1 0x3 SLOAD PUSH2 0x3E8 SWAP2 SWAP1 PUSH2 0xB77 JUMP JUMPDEST DUP5 EQ PUSH2 0x429 JUMPI PUSH1 0x40 MLOAD PUSH32 0x8C379A000000000000000000000000000000000000000000000000000000000 DUP2 MSTORE PUSH1 0x4 ADD PUSH2 0x420 SWAP1 PUSH2 0xC02 JUMP JUMPDEST PUSH1 0x40 MLOAD DUP1 SWAP2 SUB SWAP1 REVERT JUMPDEST DUP5 PUSH1 0x4 SLOAD LT ISZERO PUSH2 0x46E JUMPI PUSH1 0x40 MLOAD PUSH32 0x8C379A000000000000000000000000000000000000000000000000000000000 DUP2 MSTORE PUSH1 0x4 ADD PUSH2 0x465 SWAP1 PUSH2 0xC6A JUMP JUMPDEST PUSH1 0x40 MLOAD DUP1 SWAP2 SUB SWAP1 REVERT JUMPDEST PUSH0 DUP1 SLOAD SWAP1 PUSH2 0x100 EXP SWAP1 DIV PUSH20 0xFFFFFFFFFFFFFFFFFFFFFFFFFFFFFFFFFFFFFFFF AND PUSH20 0xFFFFFFFFFFFFFFFFFFFFFFFFFFFFFFFFFFFFFFFF AND PUSH4 0x23B872DD CALLER ADDRESS DUP8 PUSH1 0x40 MLOAD DUP5 PUSH4 0xFFFFFFFF AND PUSH1 0xE0 SHL DUP2 MSTORE PUSH1 0x4 ADD PUSH2 0x4CA SWAP4 SWAP3 SWAP2 SWAP1 PUSH2 0xC88 JUMP JUMPDEST PUSH1 0x20 PUSH1 0x40 MLOAD DUP1 DUP4 SUB DUP2 PUSH0 DUP8 GAS CALL ISZERO DUP1 ISZERO PUSH2 0x4E6 JUMPI RETURNDATASIZE PUSH0 DUP1 RETURNDATACOPY RETURNDATASIZE PUSH0 REVERT JUMPDEST POP POP POP POP PUSH1 0x40 MLOAD RETURNDATASIZE PUSH1 0x1F NOT PUSH1 0x1F DUP3 ADD AND DUP3 ADD DUP1 PUSH1 0x40 MSTORE POP DUP2 ADD SWAP1 PUSH2 0x50A SWAP2 SWAP1 PUSH2 0xB1F JUMP JUMPDEST POP PUSH0 PUSH1 0x2 SLOAD DUP7 PUSH2 0x51A SWAP2 SWAP1 PUSH2 0xCBD JUMP JUMPDEST SWAP1 POP JUMPDEST DUP1 PUSH1 0x2 SLOAD LT ISZERO PUSH2 0x5CA JUMPI PUSH1 0x7 PUSH0 SWAP1 SLOAD SWAP1 PUSH2 0x100 EXP SWAP1 DIV PUSH20 0xFFFFFFFFFFFFFFFFFFFFFFFFFFFFFFFFFFFFFFFF AND PUSH20 0xFFFFFFFFFFFFFFFFFFFFFFFFFFFFFFFFFFFFFFFF AND PUSH4 0x40C10F19 CALLER PUSH1 0x2 PUSH0 DUP2 SLOAD DUP1 SWAP3 SWAP2 SWAP1 PUSH2 0x577 SWAP1 PUSH2 0xCF0 JUMP JUMPDEST SWAP2 SWAP1 POP SSTORE PUSH1 0x40 MLOAD DUP4 PUSH4 0xFFFFFFFF AND PUSH1 0xE0 SHL DUP2 MSTORE PUSH1 0x4 ADD PUSH2 0x598 SWAP3 SWAP2 SWAP1 PUSH2 0xAC3 JUMP JUMPDEST PUSH0 PUSH1 0x40 MLOAD DUP1 DUP4 SUB DUP2 PUSH0 DUP8 DUP1 EXTCODESIZE ISZERO DUP1 ISZERO PUSH2 0x5AF JUMPI PUSH0 DUP1 REVERT JUMPDEST POP GAS CALL ISZERO DUP1 ISZERO PUSH2 0x5C1 JUMPI RETURNDATASIZE PUSH0 DUP1 RETURNDATACOPY RETURNDATASIZE PUSH0 REVERT JUMPDEST POP POP POP POP PUSH2 0x51D JUMP JUMPDEST DUP6 PUSH1 0x4 SLOAD PUSH2 0x5D8 SWAP2 SWAP1 PUSH2 0xD37 JUMP JUMPDEST PUSH1 0x4 DUP2 SWAP1 SSTORE POP PUSH0 PUSH1 0x2 PUSH2 0x1F4 DUP7 PUSH2 0x5EF SWAP2 SWAP1 PUSH2 0xD37 JUMP JUMPDEST PUSH2 0x5F9 SWAP2 SWAP1 PUSH2 0xD97 JUMP JUMPDEST SWAP1 POP PUSH0 PUSH2 0x12C DUP3 DUP7 PUSH2 0x60B SWAP2 SWAP1 PUSH2 0xD97 JUMP JUMPDEST PUSH2 0x615 SWAP2 SWAP1 PUSH2 0xD37 JUMP JUMPDEST SWAP1 POP PUSH0 PUSH2 0x12C DUP4 DUP7 PUSH2 0x627 SWAP2 SWAP1 PUSH2 0xDC7 JUMP JUMPDEST PUSH2 0x631 SWAP2 SWAP1 PUSH2 0xE0E JUMP JUMPDEST SWAP1 POP PUSH0 DUP1 SLOAD SWAP1 PUSH2 0x100 EXP SWAP1 DIV PUSH20 0xFFFFFFFFFFFFFFFFFFFFFFFFFFFFFFFFFFFFFFFF AND PUSH20 0xFFFFFFFFFFFFFFFFFFFFFFFFFFFFFFFFFFFFFFFF AND PUSH4 0xA9059CBB DUP3 DUP5 PUSH1 0x40 MLOAD DUP4 PUSH4 0xFFFFFFFF AND PUSH1 0xE0 SHL DUP2 MSTORE PUSH1 0x4 ADD PUSH2 0x68D SWAP3 SWAP2 SWAP1 PUSH2 0xAC3 JUMP JUMPDEST PUSH1 0x20 PUSH1 0x40 MLOAD DUP1 DUP4 SUB DUP2 PUSH0 DUP8 GAS CALL ISZERO DUP1 ISZERO PUSH2 0x6A9 JUMPI RETURNDATASIZE PUSH0 DUP1 RETURNDATACOPY RETURNDATASIZE PUSH0 REVERT JUMPDEST POP POP POP POP PUSH1 0x40 MLOAD RETURNDATASIZE PUSH1 0x1F NOT PUSH1 0x1F DUP3 ADD AND DUP3 ADD DUP1 PUSH1 0x40 MSTORE POP DUP2 ADD SWAP1 PUSH2 0x6CD SWAP2 SWAP1 PUSH2 0xB1F JUMP JUMPDEST POP POP POP POP POP POP POP POP POP POP JUMP JUMPDEST PUSH1 0x1 PUSH0 SWAP1 SLOAD SWAP1 PUSH2 0x100 EXP SWAP1 DIV PUSH20 0xFFFFFFFFFFFFFFFFFFFFFFFFFFFFFFFFFFFFFFFF AND DUP2 JUMP JUMPDEST PUSH1 0x3 SLOAD DUP2 JUMP JUMPDEST PUSH1 0x4 SLOAD DUP2 JUMP JUMPDEST PUSH0 DUP1 SLOAD SWAP1 PUSH2 0x100 EXP SWAP1 DIV PUSH20 0xFFFFFFFFFFFFFFFFFFFFFFFFFFFFFFFFFFFFFFFF AND DUP2 JUMP JUMPDEST PUSH1 0x1 PUSH0 SWAP1 SLOAD SWAP1 PUSH2 0x100 EXP SWAP1 DIV PUSH20 0xFFFFFFFFFFFFFFFFFFFFFFFFFFFFFFFFFFFFFFFF AND PUSH20 0xFFFFFFFFFFFFFFFFFFFFFFFFFFFFFFFFFFFFFFFF AND CALLER PUSH20 0xFFFFFFFFFFFFFFFFFFFFFFFFFFFFFFFFFFFFFFFF AND EQ PUSH2 0x7BC JUMPI PUSH1 0x40 MLOAD PUSH32 0x8C379A000000000000000000000000000000000000000000000000000000000 DUP2 MSTORE PUSH1 0x4 ADD PUSH2 0x7B3 SWAP1 PUSH2 0xA66 JUMP JUMPDEST PUSH1 0x40 MLOAD DUP1 SWAP2 SUB SWAP1 REVERT JUMPDEST DUP2 PUSH1 0x3 DUP2 SWAP1 SSTORE POP DUP1 PUSH1 0x4 DUP2 SWAP1 SSTORE POP POP POP JUMP JUMPDEST PUSH0 DUP2 SWAP1 POP SWAP2 SWAP1 POP JUMP JUMPDEST PUSH2 0x7E0 DUP2 PUSH2 0x7CE JUMP JUMPDEST DUP3 MSTORE POP POP JUMP JUMPDEST PUSH0 PUSH1 0x20 DUP3 ADD SWAP1 POP PUSH2 0x7F9 PUSH0 DUP4 ADD DUP5 PUSH2 0x7D7 JUMP JUMPDEST SWAP3 SWAP2 POP POP JUMP JUMPDEST PUSH0 PUSH20 0xFFFFFFFFFFFFFFFFFFFFFFFFFFFFFFFFFFFFFFFF DUP3 AND SWAP1 POP SWAP2 SWAP1 POP JUMP JUMPDEST PUSH0 DUP2 SWAP1 POP SWAP2 SWAP1 POP JUMP JUMPDEST PUSH0 PUSH2 0x841 PUSH2 0x83C PUSH2 0x837 DUP5 PUSH2 0x7FF JUMP JUMPDEST PUSH2 0x81E JUMP JUMPDEST PUSH2 0x7FF JUMP JUMPDEST SWAP1 POP SWAP2 SWAP1 POP JUMP JUMPDEST PUSH0 PUSH2 0x852 DUP3 PUSH2 0x827 JUMP JUMPDEST SWAP1 POP SWAP2 SWAP1 POP JUMP JUMPDEST PUSH0 PUSH2 0x863 DUP3 PUSH2 0x848 JUMP JUMPDEST SWAP1 POP SWAP2 SWAP1 POP JUMP JUMPDEST PUSH2 0x873 DUP2 PUSH2 0x859 JUMP JUMPDEST DUP3 MSTORE POP POP JUMP JUMPDEST PUSH0 PUSH1 0x20 DUP3 ADD SWAP1 POP PUSH2 0x88C PUSH0 DUP4 ADD DUP5 PUSH2 0x86A JUMP JUMPDEST SWAP3 SWAP2 POP POP JUMP JUMPDEST PUSH0 PUSH1 0xFF DUP3 AND SWAP1 POP SWAP2 SWAP1 POP JUMP JUMPDEST PUSH2 0x8A7 DUP2 PUSH2 0x892 JUMP JUMPDEST DUP3 MSTORE POP POP JUMP JUMPDEST PUSH0 PUSH1 0x20 DUP3 ADD SWAP1 POP PUSH2 0x8C0 PUSH0 DUP4 ADD DUP5 PUSH2 0x89E JUMP JUMPDEST SWAP3 SWAP2 POP POP JUMP JUMPDEST PUSH0 DUP1 REVERT JUMPDEST PUSH2 0x8D3 DUP2 PUSH2 0x7CE JUMP JUMPDEST DUP2 EQ PUSH2 0x8DD JUMPI PUSH0 DUP1 REVERT JUMPDEST POP JUMP JUMPDEST PUSH0 DUP2 CALLDATALOAD SWAP1 POP PUSH2 0x8EE DUP2 PUSH2 0x8CA JUMP JUMPDEST SWAP3 SWAP2 POP POP JUMP JUMPDEST PUSH2 0x8FD DUP2 PUSH2 0x7FF JUMP JUMPDEST DUP2 EQ PUSH2 0x907 JUMPI PUSH0 DUP1 REVERT JUMPDEST POP JUMP JUMPDEST PUSH0 DUP2 CALLDATALOAD SWAP1 POP PUSH2 0x918 DUP2 PUSH2 0x8F4 JUMP JUMPDEST SWAP3 SWAP2 POP POP JUMP JUMPDEST PUSH0 DUP1 PUSH0 DUP1 PUSH0 PUSH1 0xA0 DUP7 DUP9 SUB SLT ISZERO PUSH2 0x937 JUMPI PUSH2 0x936 PUSH2 0x8C6 JUMP JUMPDEST JUMPDEST PUSH0 PUSH2 0x944 DUP9 DUP3 DUP10 ADD PUSH2 0x8E0 JUMP JUMPDEST SWAP6 POP POP PUSH1 0x20 PUSH2 0x955 DUP9 DUP3 DUP10 ADD PUSH2 0x8E0 JUMP JUMPDEST SWAP5 POP POP PUSH1 0x40 PUSH2 0x966 DUP9 DUP3 DUP10 ADD PUSH2 0x8E0 JUMP JUMPDEST SWAP4 POP POP PUSH1 0x60 PUSH2 0x977 DUP9 DUP3 DUP10 ADD PUSH2 0x8E0 JUMP JUMPDEST SWAP3 POP POP PUSH1 0x80 PUSH2 0x988 DUP9 DUP3 DUP10 ADD PUSH2 0x90A JUMP JUMPDEST SWAP2 POP POP SWAP3 SWAP6 POP SWAP3 SWAP6 SWAP1 SWAP4 POP JUMP JUMPDEST PUSH0 PUSH2 0x99F DUP3 PUSH2 0x7FF JUMP JUMPDEST SWAP1 POP SWAP2 SWAP1 POP JUMP JUMPDEST PUSH2 0x9AF DUP2 PUSH2 0x995 JUMP JUMPDEST DUP3 MSTORE POP POP JUMP JUMPDEST PUSH0 PUSH1 0x20 DUP3 ADD SWAP1 POP PUSH2 0x9C8 PUSH0 DUP4 ADD DUP5 PUSH2 0x9A6 JUMP JUMPDEST SWAP3 SWAP2 POP POP JUMP JUMPDEST PUSH0 DUP1 PUSH1 0x40 DUP4 DUP6 SUB SLT ISZERO PUSH2 0x9E4 JUMPI PUSH2 0x9E3 PUSH2 0x8C6 JUMP JUMPDEST JUMPDEST PUSH0 PUSH2 0x9F1 DUP6 DUP3 DUP7 ADD PUSH2 0x8E0 JUMP JUMPDEST SWAP3 POP POP PUSH1 0x20 PUSH2 0xA02 DUP6 DUP3 DUP7 ADD PUSH2 0x8E0 JUMP JUMPDEST SWAP2 POP POP SWAP3 POP SWAP3 SWAP1 POP JUMP JUMPDEST PUSH0 DUP3 DUP3 MSTORE PUSH1 0x20 DUP3 ADD SWAP1 POP SWAP3 SWAP2 POP POP JUMP JUMPDEST PUSH32 0x6E6F207065726D697373696F6E73000000000000000000000000000000000000 PUSH0 DUP3 ADD MSTORE POP JUMP JUMPDEST PUSH0 PUSH2 0xA50 PUSH1 0xE DUP4 PUSH2 0xA0C JUMP JUMPDEST SWAP2 POP PUSH2 0xA5B DUP3 PUSH2 0xA1C JUMP JUMPDEST PUSH1 0x20 DUP3 ADD SWAP1 POP SWAP2 SWAP1 POP JUMP JUMPDEST PUSH0 PUSH1 0x20 DUP3 ADD SWAP1 POP DUP2 DUP2 SUB PUSH0 DUP4 ADD MSTORE PUSH2 0xA7D DUP2 PUSH2 0xA44 JUMP JUMPDEST SWAP1 POP SWAP2 SWAP1 POP JUMP JUMPDEST PUSH0 DUP2 MLOAD SWAP1 POP PUSH2 0xA92 DUP2 PUSH2 0x8CA JUMP JUMPDEST SWAP3 SWAP2 POP POP JUMP JUMPDEST PUSH0 PUSH1 0x20 DUP3 DUP5 SUB SLT ISZERO PUSH2 0xAAD JUMPI PUSH2 0xAAC PUSH2 0x8C6 JUMP JUMPDEST JUMPDEST PUSH0 PUSH2 0xABA DUP5 DUP3 DUP6 ADD PUSH2 0xA84 JUMP JUMPDEST SWAP2 POP POP SWAP3 SWAP2 POP POP JUMP JUMPDEST PUSH0 PUSH1 0x40 DUP3 ADD SWAP1 POP PUSH2 0xAD6 PUSH0 DUP4 ADD DUP6 PUSH2 0x9A6 JUMP JUMPDEST PUSH2 0xAE3 PUSH1 0x20 DUP4 ADD DUP5 PUSH2 0x7D7 JUMP JUMPDEST SWAP4 SWAP3 POP POP POP JUMP JUMPDEST PUSH0 DUP2 ISZERO ISZERO SWAP1 POP SWAP2 SWAP1 POP JUMP JUMPDEST PUSH2 0xAFE DUP2 PUSH2 0xAEA JUMP JUMPDEST DUP2 EQ PUSH2 0xB08 JUMPI PUSH0 DUP1 REVERT JUMPDEST POP JUMP JUMPDEST PUSH0 DUP2 MLOAD SWAP1 POP PUSH2 0xB19 DUP2 PUSH2 0xAF5 JUMP JUMPDEST SWAP3 SWAP2 POP POP JUMP JUMPDEST PUSH0 PUSH1 0x20 DUP3 DUP5 SUB SLT ISZERO PUSH2 0xB34 JUMPI PUSH2 0xB33 PUSH2 0x8C6 JUMP JUMPDEST JUMPDEST PUSH0 PUSH2 0xB41 DUP5 DUP3 DUP6 ADD PUSH2 0xB0B JUMP JUMPDEST SWAP2 POP POP SWAP3 SWAP2 POP POP JUMP JUMPDEST PUSH32 0x4E487B7100000000000000000000000000000000000000000000000000000000 PUSH0 MSTORE PUSH1 0x11 PUSH1 0x4 MSTORE PUSH1 0x24 PUSH0 REVERT JUMPDEST PUSH0 PUSH2 0xB81 DUP3 PUSH2 0x7CE JUMP JUMPDEST SWAP2 POP PUSH2 0xB8C DUP4 PUSH2 0x7CE JUMP JUMPDEST SWAP3 POP DUP3 DUP3 MUL PUSH2 0xB9A DUP2 PUSH2 0x7CE JUMP JUMPDEST SWAP2 POP DUP3 DUP3 DIV DUP5 EQ DUP4 ISZERO OR PUSH2 0xBB1 JUMPI PUSH2 0xBB0 PUSH2 0xB4A JUMP JUMPDEST JUMPDEST POP SWAP3 SWAP2 POP POP JUMP JUMPDEST PUSH32 0x76616C756520213D207072696365202A206E756D626572000000000000000000 PUSH0 DUP3 ADD MSTORE POP JUMP JUMPDEST PUSH0 PUSH2 0xBEC PUSH1 0x17 DUP4 PUSH2 0xA0C JUMP JUMPDEST SWAP2 POP PUSH2 0xBF7 DUP3 PUSH2 0xBB8 JUMP JUMPDEST PUSH1 0x20 DUP3 ADD SWAP1 POP SWAP2 SWAP1 POP JUMP JUMPDEST PUSH0 PUSH1 0x20 DUP3 ADD SWAP1 POP DUP2 DUP2 SUB PUSH0 DUP4 ADD MSTORE PUSH2 0xC19 DUP2 PUSH2 0xBE0 JUMP JUMPDEST SWAP1 POP SWAP2 SWAP1 POP JUMP JUMPDEST PUSH32 0x696E73756666696369656E74206E756D62657200000000000000000000000000 PUSH0 DUP3 ADD MSTORE POP JUMP JUMPDEST PUSH0 PUSH2 0xC54 PUSH1 0x13 DUP4 PUSH2 0xA0C JUMP JUMPDEST SWAP2 POP PUSH2 0xC5F DUP3 PUSH2 0xC20 JUMP JUMPDEST PUSH1 0x20 DUP3 ADD SWAP1 POP SWAP2 SWAP1 POP JUMP JUMPDEST PUSH0 PUSH1 0x20 DUP3 ADD SWAP1 POP DUP2 DUP2 SUB PUSH0 DUP4 ADD MSTORE PUSH2 0xC81 DUP2 PUSH2 0xC48 JUMP JUMPDEST SWAP1 POP SWAP2 SWAP1 POP JUMP JUMPDEST PUSH0 PUSH1 0x60 DUP3 ADD SWAP1 POP PUSH2 0xC9B PUSH0 DUP4 ADD DUP7 PUSH2 0x9A6 JUMP JUMPDEST PUSH2 0xCA8 PUSH1 0x20 DUP4 ADD DUP6 PUSH2 0x9A6 JUMP JUMPDEST PUSH2 0xCB5 PUSH1 0x40 DUP4 ADD DUP5 PUSH2 0x7D7 JUMP JUMPDEST SWAP5 SWAP4 POP POP POP POP JUMP JUMPDEST PUSH0 PUSH2 0xCC7 DUP3 PUSH2 0x7CE JUMP JUMPDEST SWAP2 POP PUSH2 0xCD2 DUP4 PUSH2 0x7CE JUMP JUMPDEST SWAP3 POP DUP3 DUP3 ADD SWAP1 POP DUP1 DUP3 GT ISZERO PUSH2 0xCEA JUMPI PUSH2 0xCE9 PUSH2 0xB4A JUMP JUMPDEST JUMPDEST SWAP3 SWAP2 POP POP JUMP JUMPDEST PUSH0 PUSH2 0xCFA DUP3 PUSH2 0x7CE JUMP JUMPDEST SWAP2 POP PUSH32 0xFFFFFFFFFFFFFFFFFFFFFFFFFFFFFFFFFFFFFFFFFFFFFFFFFFFFFFFFFFFFFFFF DUP3 SUB PUSH2 0xD2C JUMPI PUSH2 0xD2B PUSH2 0xB4A JUMP JUMPDEST JUMPDEST PUSH1 0x1 DUP3 ADD SWAP1 POP SWAP2 SWAP1 POP JUMP JUMPDEST PUSH0 PUSH2 0xD41 DUP3 PUSH2 0x7CE JUMP JUMPDEST SWAP2 POP PUSH2 0xD4C DUP4 PUSH2 0x7CE JUMP JUMPDEST SWAP3 POP DUP3 DUP3 SUB SWAP1 POP DUP2 DUP2 GT ISZERO PUSH2 0xD64 JUMPI PUSH2 0xD63 PUSH2 0xB4A JUMP JUMPDEST JUMPDEST SWAP3 SWAP2 POP POP JUMP JUMPDEST PUSH32 0x4E487B7100000000000000000000000000000000000000000000000000000000 PUSH0 MSTORE PUSH1 0x12 PUSH1 0x4 MSTORE PUSH1 0x24 PUSH0 REVERT JUMPDEST PUSH0 PUSH2 0xDA1 DUP3 PUSH2 0x7CE JUMP JUMPDEST SWAP2 POP PUSH2 0xDAC DUP4 PUSH2 0x7CE JUMP JUMPDEST SWAP3 POP DUP3 PUSH2 0xDBC JUMPI PUSH2 0xDBB PUSH2 0xD6A JUMP JUMPDEST JUMPDEST DUP3 DUP3 DIV SWAP1 POP SWAP3 SWAP2 POP POP JUMP JUMPDEST PUSH0 PUSH2 0xDD1 DUP3 PUSH2 0x7FF JUMP JUMPDEST SWAP2 POP PUSH2 0xDDC DUP4 PUSH2 0x7FF JUMP JUMPDEST SWAP3 POP DUP3 DUP3 ADD SWAP1 POP PUSH20 0xFFFFFFFFFFFFFFFFFFFFFFFFFFFFFFFFFFFFFFFF DUP2 GT ISZERO PUSH2 0xE08 JUMPI PUSH2 0xE07 PUSH2 0xB4A JUMP JUMPDEST JUMPDEST SWAP3 SWAP2 POP POP JUMP JUMPDEST PUSH0 PUSH2 0xE18 DUP3 PUSH2 0x7FF JUMP JUMPDEST SWAP2 POP PUSH2 0xE23 DUP4 PUSH2 0x7FF JUMP JUMPDEST SWAP3 POP DUP3 DUP3 SUB SWAP1 POP PUSH20 0xFFFFFFFFFFFFFFFFFFFFFFFFFFFFFFFFFFFFFFFF DUP2 GT ISZERO PUSH2 0xE4F JUMPI PUSH2 0xE4E PUSH2 0xB4A JUMP JUMPDEST JUMPDEST SWAP3 SWAP2 POP POP JUMP INVALID LOG2 PUSH5 0x6970667358 0x22 SLT KECCAK256 PUSH2 0xAFCE 0xC5 ISZERO 0xC8 MSIZE REVERT JUMPDEST PUSH3 0xE26E59 TLOAD LOG1 0xF7 LT 0xCD 0xA8 SWAP6 DUP5 PUSH19 0xE55D2098D5A2AFC0E37864736F6C6343000818 STOP CALLER "
		},
		"gasEstimates": {
			"creation": {
				"codeDepositCost": "744600",
				"executionCost": "infinite",
				"totalCost": "infinite"
			},
			"external": {
				"ERC20SwapERC721(uint256,uint256,uint256,uint256,uint160)": "infinite",
				"amount()": "2469",
				"index()": "2426",
				"nft()": "infinite",
				"owner()": "2508",
				"percent()": "2533",
				"price()": "2447",
				"setPrice(uint256,uint256)": "infinite",
				"u()": "2571",
				"withdraw()": "infinite"
			}
		},
		"methodIdentifiers": {
			"ERC20SwapERC721(uint256,uint256,uint256,uint256,uint160)": "8d8acae8",
			"amount()": "aa8c217c",
			"index()": "2986c0e5",
			"nft()": "47ccca02",
			"owner()": "8da5cb5b",
			"percent()": "70ba1113",
			"price()": "a035b1fe",
			"setPrice(uint256,uint256)": "f7d97577",
			"u()": "c6a898c5",
			"withdraw()": "3ccfd60b"
		}
	},
	"abi": [
		{
			"inputs": [
				{
					"internalType": "address",
					"name": "_u",
					"type": "address"
				},
				{
					"internalType": "uint256",
					"name": "value",
					"type": "uint256"
				},
				{
					"internalType": "uint256",
					"name": "number",
					"type": "uint256"
				},
				{
					"internalType": "address",
					"name": "nftAddr",
					"type": "address"
				}
			],
			"stateMutability": "nonpayable",
			"type": "constructor"
		},
		{
			"inputs": [
				{
					"internalType": "uint256",
					"name": "number",
					"type": "uint256"
				},
				{
					"internalType": "uint256",
					"name": "value",
					"type": "uint256"
				},
				{
					"internalType": "uint256",
					"name": "rand",
					"type": "uint256"
				},
				{
					"internalType": "uint256",
					"name": "perNum",
					"type": "uint256"
				},
				{
					"internalType": "uint160",
					"name": "teamAddress",
					"type": "uint160"
				}
			],
			"name": "ERC20SwapERC721",
			"outputs": [],
			"stateMutability": "nonpayable",
			"type": "function"
		},
		{
			"inputs": [],
			"name": "amount",
			"outputs": [
				{
					"internalType": "uint256",
					"name": "",
					"type": "uint256"
				}
			],
			"stateMutability": "view",
			"type": "function"
		},
		{
			"inputs": [],
			"name": "index",
			"outputs": [
				{
					"internalType": "uint256",
					"name": "",
					"type": "uint256"
				}
			],
			"stateMutability": "view",
			"type": "function"
		},
		{
			"inputs": [],
			"name": "nft",
			"outputs": [
				{
					"internalType": "contract MyNFT",
					"name": "",
					"type": "address"
				}
			],
			"stateMutability": "view",
			"type": "function"
		},
		{
			"inputs": [],
			"name": "owner",
			"outputs": [
				{
					"internalType": "address",
					"name": "",
					"type": "address"
				}
			],
			"stateMutability": "view",
			"type": "function"
		},
		{
			"inputs": [],
			"name": "percent",
			"outputs": [
				{
					"internalType": "uint8",
					"name": "",
					"type": "uint8"
				}
			],
			"stateMutability": "view",
			"type": "function"
		},
		{
			"inputs": [],
			"name": "price",
			"outputs": [
				{
					"internalType": "uint256",
					"name": "",
					"type": "uint256"
				}
			],
			"stateMutability": "view",
			"type": "function"
		},
		{
			"inputs": [
				{
					"internalType": "uint256",
					"name": "value",
					"type": "uint256"
				},
				{
					"internalType": "uint256",
					"name": "number",
					"type": "uint256"
				}
			],
			"name": "setPrice",
			"outputs": [],
			"stateMutability": "nonpayable",
			"type": "function"
		},
		{
			"inputs": [],
			"name": "u",
			"outputs": [
				{
					"internalType": "address",
					"name": "",
					"type": "address"
				}
			],
			"stateMutability": "view",
			"type": "function"
		},
		{
			"inputs": [],
			"name": "withdraw",
			"outputs": [],
			"stateMutability": "nonpayable",
			"type": "function"
		}
	]
}